{
  "_format": "hh-sol-artifact-1",
  "contractName": "MintNFT",
  "sourceName": "contracts/MintNFT.sol",
  "abi": [
    {
      "inputs": [],
      "stateMutability": "nonpayable",
      "type": "constructor"
    },
    {
      "inputs": [
        {
          "internalType": "uint256",
          "name": "id",
          "type": "uint256"
        }
      ],
      "name": "getNFT",
      "outputs": [
        {
          "components": [
            {
              "internalType": "uint256",
              "name": "id",
              "type": "uint256"
            },
            {
              "internalType": "string",
              "name": "uri",
              "type": "string"
            }
          ],
          "internalType": "struct MintNFT.NFT",
          "name": "",
          "type": "tuple"
        }
      ],
      "stateMutability": "view",
      "type": "function"
    },
    {
      "inputs": [
        {
          "internalType": "string",
          "name": "uri",
          "type": "string"
        }
      ],
      "name": "mint",
      "outputs": [],
      "stateMutability": "nonpayable",
      "type": "function"
    },
    {
      "inputs": [
        {
          "internalType": "uint256",
          "name": "id",
          "type": "uint256"
        }
      ],
      "name": "tokenURI",
      "outputs": [
        {
          "internalType": "string",
          "name": "",
          "type": "string"
        }
      ],
      "stateMutability": "view",
      "type": "function"
    },
    {
      "inputs": [],
      "name": "totalSupply",
      "outputs": [
        {
          "internalType": "uint256",
          "name": "",
          "type": "uint256"
        }
      ],
      "stateMutability": "view",
      "type": "function"
    }
  ],
  "bytecode": "0x6080604052348015600f57600080fd5b506109ed8061001f6000396000f3fe608060405234801561001057600080fd5b506004361061004c5760003560e01c806318160ddd14610051578063576f7ea71461006f578063c87b56dd1461009f578063d85d3d27146100cf575b600080fd5b6100596100eb565b6040516100669190610306565b60405180910390f35b61008960048036038101906100849190610361565b6100f4565b604051610096919061046a565b60405180910390f35b6100b960048036038101906100b49190610361565b6101bd565b6040516100c691906104d6565b60405180910390f35b6100e960048036038101906100e4919061062d565b610265565b005b60008054905090565b6100fc6102d3565b6001600083815260200190815260200160002060405180604001604052908160008201548152602001600182018054610134906106a5565b80601f0160208091040260200160405190810160405280929190818152602001828054610160906106a5565b80156101ad5780601f10610182576101008083540402835291602001916101ad565b820191906000526020600020905b81548152906001019060200180831161019057829003601f168201915b5050505050815250509050919050565b60606001600083815260200190815260200160002060010180546101e0906106a5565b80601f016020809104026020016040519081016040528092919081815260200182805461020c906106a5565b80156102595780601f1061022e57610100808354040283529160200191610259565b820191906000526020600020905b81548152906001019060200180831161023c57829003601f168201915b50505050509050919050565b60016000808282546102779190610705565b92505081905550600080549050604051806040016040528082815260200183815250600160008381526020019081526020016000206000820151816000015560208201518160010190816102cb91906108e5565b509050505050565b604051806040016040528060008152602001606081525090565b6000819050919050565b610300816102ed565b82525050565b600060208201905061031b60008301846102f7565b92915050565b6000604051905090565b600080fd5b600080fd5b61033e816102ed565b811461034957600080fd5b50565b60008135905061035b81610335565b92915050565b6000602082840312156103775761037661032b565b5b60006103858482850161034c565b91505092915050565b610397816102ed565b82525050565b600081519050919050565b600082825260208201905092915050565b60005b838110156103d75780820151818401526020810190506103bc565b60008484015250505050565b6000601f19601f8301169050919050565b60006103ff8261039d565b61040981856103a8565b93506104198185602086016103b9565b610422816103e3565b840191505092915050565b6000604083016000830151610445600086018261038e565b506020830151848203602086015261045d82826103f4565b9150508091505092915050565b60006020820190508181036000830152610484818461042d565b905092915050565b600082825260208201905092915050565b60006104a88261039d565b6104b2818561048c565b93506104c28185602086016103b9565b6104cb816103e3565b840191505092915050565b600060208201905081810360008301526104f0818461049d565b905092915050565b600080fd5b600080fd5b7f4e487b7100000000000000000000000000000000000000000000000000000000600052604160045260246000fd5b61053a826103e3565b810181811067ffffffffffffffff8211171561055957610558610502565b5b80604052505050565b600061056c610321565b90506105788282610531565b919050565b600067ffffffffffffffff82111561059857610597610502565b5b6105a1826103e3565b9050602081019050919050565b82818337600083830152505050565b60006105d06105cb8461057d565b610562565b9050828152602081018484840111156105ec576105eb6104fd565b5b6105f78482856105ae565b509392505050565b600082601f830112610614576106136104f8565b5b81356106248482602086016105bd565b91505092915050565b6000602082840312156106435761064261032b565b5b600082013567ffffffffffffffff81111561066157610660610330565b5b61066d848285016105ff565b91505092915050565b7f4e487b7100000000000000000000000000000000000000000000000000000000600052602260045260246000fd5b600060028204905060018216806106bd57607f821691505b6020821081036106d0576106cf610676565b5b50919050565b7f4e487b7100000000000000000000000000000000000000000000000000000000600052601160045260246000fd5b6000610710826102ed565b915061071b836102ed565b9250828201905080821115610733576107326106d6565b5b92915050565b60008190508160005260206000209050919050565b60006020601f8301049050919050565b600082821b905092915050565b60006008830261079b7fffffffffffffffffffffffffffffffffffffffffffffffffffffffffffffffff8261075e565b6107a5868361075e565b95508019841693508086168417925050509392505050565b6000819050919050565b60006107e26107dd6107d8846102ed565b6107bd565b6102ed565b9050919050565b6000819050919050565b6107fc836107c7565b610810610808826107e9565b84845461076b565b825550505050565b600090565b610825610818565b6108308184846107f3565b505050565b5b818110156108545761084960008261081d565b600181019050610836565b5050565b601f8211156108995761086a81610739565b6108738461074e565b81016020851015610882578190505b61089661088e8561074e565b830182610835565b50505b505050565b600082821c905092915050565b60006108bc6000198460080261089e565b1980831691505092915050565b60006108d583836108ab565b9150826002028217905092915050565b6108ee8261039d565b67ffffffffffffffff81111561090757610906610502565b5b61091182546106a5565b61091c828285610858565b600060209050601f83116001811461094f576000841561093d578287015190505b61094785826108c9565b8655506109af565b601f19841661095d86610739565b60005b8281101561098557848901518255600182019150602085019450602081019050610960565b868310156109a2578489015161099e601f8916826108ab565b8355505b6001600288020188555050505b50505050505056fea26469706673582212200103eae5ed941fdc38f0a0245d8284c8fbaaa6a3bae40356585eff588ffcd4dc64736f6c634300081b0033",
  "linkReferences": {},
  "deployedLinkReferences": {}
}